:10000000ACC00000C6C00000C4C00000C2C00000F8
:10001000C0C00000BEC00000BCC00000BAC00000EC
:10002000B8C00000B6C00000B4C00000E6C50000C3
:10003000B0C00000AEC00000ACC00000AAC000000C
:10004000A8C00000A6C00000A4C00000A2C000001C
:10005000A0C000009EC000009CC00000EBC10000DA
:1000600098C0000096C0000094C0000092C000003C
:1000700090C000006364696E6F70737578585B00A0
:10008000240350004F004B004B0045004E00200061
:1000900043004F004E00540052004F004C004C00F3
:1000A0004500520000001C0348004F005200490068
:1000B000200043004F002E002C004C005400440050
:1000C0002E00000004030904090229000101008038
:1000D000FA090400000203000000092111010001D7
:1000E0002256000705020340000507058103400072
:1000F0000512010002000000400D0F9200000101F6
:1001000002000105010905A1011500250135004581
:1001100001750195100509190129108102050125B4
:1001200007463B0175049501651409398142650054
:100130009501810126FF0046FF000930093109328F
:1001400009357508950481020600FF092095018193
:10015000020A212695089102C00011241FBECFEF8C
:10016000D2E0DEBFCDBF11E0A0E0B1E0EEEAF7E102
:1001700002C005900D92AE39B107D9F721E0AEE982
:10018000B1E001C01D92A23EB207E1F787D20C9404
:10019000D50B36CFEF92FF920F931F93CF93DF9340
:1001A000CDB7DEB768970FB6F894DEBF0FBECDBFF0
:1001B0008E010F5F1F4F1F930F937E0121E1E20E0F
:1001C000F11CFF92EF9221E031E03F932F939F9338
:1001D0008F93BBD767E071E0C70161D70FB6F89482
:1001E000DEBF0FBECDBF892B59F41092000162E132
:1001F00071E0C80154D7892B79F581E090E04FC0B8
:100200006EE071E0C7014BD7892B21F481E0809328
:100210000001EDCF61E171E0C70141D7892B11F4F5
:1002200082E0F5CF64E171E0C70139D7892B11F481
:1002300083E0EDCF67E171E0C70131D7892B11F47D
:1002400084E0E5CF6AE171E0C70129D7892B11F479
:1002500085E0DDCF86E0DBCF6EE171E0C8011FD71E
:10026000892B19F482E090E01AC060E271E0C801C5
:1002700016D7892B19F484E090E011C06EE571E087
:10028000C8010DD7892B19F488E090E008C063E21B
:1002900071E0C80104D7892B39F480E190E0909394
:1002A000C0018093BF015BC06CE971E0C801F7D663
:1002B000892B19F480E290E0F2CF62E271E0C8018C
:1002C000EED6892B19F480E490E0E9CF65E271E085
:1002D000C801E5D6892B19F480E890E0E0CF68E208
:1002E00071E0C801DCD6892B19F480E091E0D7CF0A
:1002F0006FE271E0C801D3D6892B19F480E092E057
:10030000CECF65E371E0C801CAD6892B19F480E02D
:1003100094E0C5CF6CE371E0C801C1D6892B19F414
:1003200080E098E0BCCF63E471E0C801B8D6892BC7
:1003300019F480E090E1B3CF68E471E0C801AFD672
:10034000892B19F480E090E2AACF60E571E0C80142
:10035000A6D6892B89F41092C0011092BF0168962D
:100360000FB6F894DEBF0FBECDBFDF91CF911F91C6
:100370000F91FF90EF90089568E571E0C8018FD666
:10038000892B49F36CE571E0C80189D6892B19F4F2
:100390008FEF90E084CF60E671E0C80180D6892BB2
:1003A000D1F264E671E0C8017AD6892B09F425CF31
:1003B00065E771E0C80173D6892B09F453CF6EE667
:1003C00071E0C8016CD6892B19F483E090E067CF07
:1003D0006BE771E0C80163D6892B09F44CCF62E862
:1003E00071E0C8015CD6892B19F485E090E057CF05
:1003F00069E871E0C80153D6892B19F486E090E0D2
:100400004ECF6EE871E0C8014AD6892B19F487E017
:1004100090E045CF67E971E0C80141D6892B31F4FE
:1004200080910001853009F057CF2ECF86E0809370
:10043000000195CF1F920F920FB60F9211241F93B8
:100440002F933F934F935F936F937F938F939F93DC
:10045000AF93BF93CF93DF93EF93FF938091DC0132
:100460009091DD012FD6EC01182F8091C80085FFF7
:1004700003C0CE01992764D61D3001F58FE991E0C4
:1004800089DE10929E01EFE9F1E080E2DF011D922A
:100490008A95E9F7FF91EF91DF91CF91BF91AF91ED
:1004A0009F918F917F916F915F914F913F912F918C
:1004B0001F910F900FBE0F901F9018951A3051F397
:1004C000E0919E01E03230F781E08E0F80939E0133
:1004D000F0E0E156FE4FC083DDCF84B7877F84BF55
:1004E0000FB6F894A89580916000886180936000B1
:1004F000109260000FBE80E890E00FB6F8948093F1
:100500006100909361000FBE69C30895089542E3AE
:1005100060EC82E0A6D242E361EC81E0A2C2FC0181
:1005200098E0DF01892F1D928A95E9F780E883839F
:100530008483858386839283809100018330E1F0F8
:1005400038F4813089F0823099F0882331F00895B1
:100550008430B1F08530C1F008958091BF01909151
:10056000C0019183808308958091BF0183830895A2
:100570008091BF01848308958091BF018583089590
:100580008091BF01868308958091BF018283089581
:10059000CF93DF93CDB7DEB728970FB6F894DEBFC1
:1005A0000FBECDBF8091C701813059F0893001F174
:1005B00028960FB6F894DEBF0FBECDBFDF91CF9166
:1005C00008958091C601813A99F7CE010196A7DF7F
:1005D0008091E800877F8093E80068E070E0CE01BA
:1005E000019657D18091E8008B778093E800E0CFA7
:1005F0008091C6018132E1F68091E800877F809387
:10060000E80067E070E0CE0101969CD18091E8009F
:100610008E77EBCFCF93DF93CDB7DEB728970FB6AA
:10062000F894DEBF0FBECDBF8091C501843069F55F
:1006300082E08093E9008091E80082FF10C0809101
:10064000E80085FF07C050E040E067E070E0CE01C1
:100650000196D1D08091E8008B778093E80081E00B
:100660008093E9008091E80080FF0FC0CE010196E1
:1006700056DF50E040E068E070E0CE0101966DD0BA
:100680008091E8008E778093E80028960FB6F89462
:10069000DEBF0FBECDBFDF91CF91089587E690E01A
:1006A0009093CD008093CC0086E08093CA00109296
:1006B000C80088E18093C900539A5A9A90E080E07C
:1006C000D0D478948091C90080688093C90005DFF8
:1006D0007894A0DF91D4FDCF9C01DA01832F992774
:1006E00083309105B9F060F48130910561F1029792
:1006F000E1F489E290E028EC30E02D933C930895FA
:100700008132910529F1829781F486E590E023E01A
:1007100031E0F3CFC9019927213061F08230910592
:1007200079F0E4ECF0E0892B39F090E080E030E003
:1007300020E0E3CFE6EAF0E0849190E09F01DDCF96
:10074000E0E8F0E0F9CF82E190E021EF30E0D5CFB2
:1007500089E090E02AED30E0D0CFAF92BF92CF9207
:10076000DF92FF920F931F93CF93DF936C01EB0106
:100770008A01CAD1F82E811124C00115110539F062
:10078000F80180819181C81BD90BC80ED91EB12CEC
:10079000A12C2097B1F08091E80085FD22C08091C6
:1007A000E8008E778093E80027D401151105A1F0A9
:1007B000F80180819181A80EB91EB182A08285E0E6
:1007C000F82E8F2DDF91CF911F910F91FF90DF9029
:1007D000CF90BF90AF90089597D18823D1F2F82E93
:1007E000F0CFF60181916F018093F1002197FFEF27
:1007F000AF1ABF0ACECFAF92BF92CF92DF92FF92D5
:100800000F931F93CF93DF936C01EB018A017CD18F
:10081000F82E811124C00115110539F0F8018081ED
:100820009181C81BD90BC80ED91EB12CA12C2097C1
:10083000B1F08091E80085FD22C08091E8008B77BF
:100840008093E800D9D301151105A1F0F80180814A
:100850009181A80EB91EB182A08285E0F82E8F2D5D
:10086000DF91CF911F910F91FF90DF90CF90BF90BC
:10087000AF90089549D18823D1F2F82EF0CF80911E
:10088000F100F60181936F012197FFEFAF1ABF0AC4
:10089000CECFFC01CB012091CC013091CD012617A8
:1008A000370790F0009729F42091E8002E772093E5
:1008B000E80040E0009751F4411108C08091E80041
:1008C00082FF30C080E00895C901F3CF2091C501B7
:1008D0002223A1F12530A1F12091E80023FD2CC0B5
:1008E0002091E80022FDEACF2091E80020FFE2CF2E
:1008F0002091F20030E0009719F02034310558F0D3
:1009000041E02034310509F040E02091E8002E77E5
:100910002093E800CFCF41914093F10001972F5FE2
:100920003F4FE9CF8091C501882341F0853041F0E8
:100930008091E80083FFC2CF81E0089582E00895AE
:1009400083E00895FC01CB01009729F42091E80091
:100950002B772093E800009731F48091E80080FF26
:100960001AC080E008952091C5012223F1F02530BE
:10097000C1F02091E80023FD16C02091E80022FF7D
:10098000EACF2091F200222309F32091F100219374
:100990000197B9F7DBCF8091C501882331F085300D
:1009A000E1F683E0089581E0089582E00895FC0176
:1009B000CB012091CC013091CD012617370790F063
:1009C000009729F42091E8002E772093E80040E07A
:1009D000009751F4411108C08091E80082FF31C0B6
:1009E00080E00895C901F3CF2091C5012223A9F128
:1009F0002530A9F12091E80023FD2DC02091E800C9
:100A000022FDEACF2091E80020FFE2CF2091F20002
:100A100030E0009719F02034310558F041E02034DF
:100A2000310509F040E02091E8002E772093E8009E
:100A3000CFCF44914093F100319601972F5F3F4F04
:100A4000E8CF8091C501882341F0853041F0809145
:100A5000E80083FFC1CF81E0089582E0089583E03C
:100A60000895982F953028F08F708093E90081E0E9
:100A700008959093E900242F762F50E0981731F0D5
:100A80007091EC002091ED005091F00021FD02C02A
:100A90009F5FE8CF3091EB003E7F3093EB003091C9
:100AA000ED003D7F3093ED003091EB0031603093ED
:100AB000EB007093EC002093ED005093F000209138
:100AC000EE0027FDE5CF80E008958091C60187FF05
:100AD00013C08091E80082FF06C08091E8008B7708
:100AE0008093E80004C08091C5018111F2CF089580
:100AF0008091C5018823D9F38091E80080FFF8CF69
:100B00008091E8008E77ECCF2091E4003091E500F1
:100B100095E6A9012091EC00822F817020FF06C08C
:100B20008091E80080FF06C080E008952091E800F1
:100B300022FD1AC08091C501882389F0853089F093
:100B40008091EB0085FD0FC02091E4003091E5001D
:100B500042175307F9F29150E1F684E0089582E0DC
:100B6000089583E0089581E0089541D043D08091B5
:100B7000D8008F778093D8008091D80080688093C8
:100B8000D8008091D8008F7D8093D80084E089BD03
:100B900086E089BD09B400FEFDCF1092C501109218
:100BA000C1011092C3011092C20142E360E080E0F3
:100BB00058DF8091E1008E7F8093E1008091E20018
:100BC00081608093E2008091E20088608093E2007F
:100BD0008091E0008E7F8093E0000895E3E6F0E0EE
:100BE00080818E7F808381E08093C401BECF10928C
:100BF000E20008951092E10008951F920F920FB63F
:100C00000F9211242F933F934F935F936F937F9392
:100C10008F939F93AF93BF93EF93FF938091E100E6
:100C200082FF0AC08091E20082FF06C08091E1004D
:100C30008B7F8093E100DFD18091E10080FF17C0BE
:100C40008091E20080FF13C08091E2008E7F80934C
:100C5000E2008091E20080618093E2008091D80000
:100C600080628093D80019BC1092C5014FDC80913E
:100C7000E10084FF27C08091E20084FF23C084E06C
:100C800089BD86E089BD09B400FEFDCF8091D80002
:100C90008F7D8093D8008091E1008F7E8093E1006A
:100CA0008091E2008F7E8093E2008091E20081607B
:100CB0008093E2008091C1018823D9F184E0809380
:100CC000C50123DC8091E10083FF22C08091E20016
:100CD00083FF1EC08091E100877F8093E10082E066
:100CE0008093C5011092C1018091E1008E7F8093B5
:100CF000E1008091E2008E7F8093E2008091E2002B
:100D000080618093E20042E360E080E0AADE73D17C
:100D1000FF91EF91BF91AF919F918F917F916F91D3
:100D20005F914F913F912F910F900FBE0F901F90A9
:100D300018958091E30087FD02C081E0C0CF83E079
:100D4000BECF1F93CF93DF93CDB7DEB7AA970FB671
:100D5000F894DEBF0FBECDBF86EC91E0FC0101969A
:100D60002091F100208321E08E3C9207B9F710DC3E
:100D70008091E80083FF10C08091C6019091C70167
:100D8000953009F4C2C000F5292F2D7F213009F4D8
:100D900089C0992309F45EC08091E80083FF0AC0EE
:100DA0008091E800877F8093E8008091EB0080626B
:100DB0008093EB00AA960FB6F894DEBF0FBECDBFAE
:100DC000DF91CF911F910895983009F4D5C09930E3
:100DD00009F4DFC0963001F780588230E8F6809140
:100DE000C8019091C9018C3D23E0920709F0AFC082
:100DF00083E08A838AE289834FB7F894DE011396F1
:100E000020E03EE051E2E32FF0E050935700E49100
:100E100020FF03C0E295EF703F5FEF708E2F90E0F0
:100E2000EA3008F492C0C7968D939D932F5F2431CA
:100E300051F74FBF8091E800877F8093E8006AE216
:100E400070E0CE01019625DD8091E8008B778093DC
:100E5000E800A2CF803899F0823809F09DCF8091C8
:100E6000CA018F70853008F097CF8093E900809198
:100E7000EB0085FB882780F91092E90006C080917D
:100E8000C2019091C301911182609091E800977F17
:100E90009093E8008093F1001092F1008091E800B7
:100EA0008E77A5C0882309F492C0823009F074CFF0
:100EB0008091C801811196C08091CA018F702FEF77
:100EC000280F243008F068CF8093E9002091EB00D0
:100ED00020FF88C0933031F48091EB0080628093D2
:100EE000EB0080C09091EB0090619093EB0021E0CB
:100EF00030E001C0220F8A95EAF72093EA001092B1
:100F0000EA008091EB008860EACF811145CF109113
:100F1000C8011F778091E3008078812B8093E300E4
:100F20008091E800877F8093E800CFDD8091E80022
:100F300080FFFCCF8091E30080688093E30082E033
:100F4000111183E08093C50127CFC0966DCF6091CA
:100F5000CA017091CB01AE014F5F5F4FBDDBBC0199
:100F6000892B09F419CF8091E800877F8093E800EE
:100F700089819A811CDD68CF803809F00DCF80917E
:100F8000E800877F8093E8008091C1018093F100A1
:100F900085CF811101CF9091C801923008F0FCCE2D
:100FA0008091E800877F8093E8009093C1018DDDF8
:100FB0008091C101882311F084E005C08091E30095
:100FC00087FDFACF81E08093C501A1DAE5CE80915B
:100FD000C801813009F0E0CE81E0933009F080E073
:100FE0008093C3011092E9008091E800877F80938D
:100FF000E8006BDDD1CE0895CF938091C5018823A1
:1010000099F0C091E900CF709091EC00892F817028
:1010100090FD80E8C82B1092E9008091E80083FDE4
:1010200090DECF70C093E900CF9108959091C800F1
:1010300095FFFCCF8093CE0090E080E008958091F2
:10104000C80087FF08C08091C80087FF07C0809153
:10105000CE0090E008958EEF9FEF08958FEF9FEF01
:101060000895FC01892B59F48EEC91E09093DD01F9
:101070008093DC019093DF018093DE01FC018EE020
:10108000DF011D928A95E9F783E0838386E198E08A
:10109000918780878FE198E0938782870895FB018D
:1010A000DC018D9181341CF08B350CF4805E6191F4
:1010B00061341CF06B350CF4605E861B611189F3A2
:1010C000990B0895CF93DF93EC018B8180FF33C0A0
:1010D00086FF0CC08F7B8B838E819F8101969F83BF
:1010E0008E838A8190E0DF91CF91089582FF15C0B1
:1010F000E881F9819081292F092E000C330B806241
:101100009923C1F03196F983E8838E819F810196FE
:101110009F838E83C9019927E6CFEA85FB85CE019F
:1011200009959C0197FFF1CF8B812F3F3F4F31F005
:1011300090E2892B8B838FEF9FEFD5CF90E1F9CF92
:101140006091DE017091DF01AEC2AEE0B0E0EAEA8C
:10115000F8E004C385E08C838B899C899A8389831A
:10116000AE01495E5F4F6D897E89CE01019679D1CE
:101170002E96E2E00FC3FC01CA01DB0120FD08C08E
:1011800023FD05C022FF02C0B383A2839183808325
:101190000895CF92DF92EF92FF92CF93DF9300D02A
:1011A00000D0CDB7DEB76B017C0183E044FD10C0F9
:1011B00084E046FD0DC0D601F701AA0FBB1FEE1F4C
:1011C000FF1F1094D1F7CA0EDB1EEE1EFF1E81E03A
:1011D000CC0CDD1CEE1CFF1C8150D1F7D701C601E1
:1011E000820F911DA11DB11DBC01CD010F900F906B
:1011F0000F900F90DF91CF91FF90EF90DF90CF9005
:1012000008950F931F93CF93DF938C01C8015ADF8A
:10121000EC0197FD06C034D2892BC1F7B801CE018D
:1012200072D2CE01DF91CF911F910F910895B0E05E
:10123000A0E0ECE1F9E08AC28C01C62F5A01F22E3F
:1012400041DFFC019927EB3221F08D9771F468940E
:10125000F7F8C15029F480E0CDB7DEB7EAE092C2DA
:10126000C80130DFFC0197FDF6CFDF2DDD7F8F2D2C
:101270008073F9F4E033E9F4EE24EA94EC0EC13023
:1012800081F0C8011FDFFC0197FD0BC08F7D883501
:1012900061F4D264C25029F0C80114DFFC0197FF49
:1012A00008C0C12CD12C76011BC0F6FE2AC0D2602A
:1012B000CE2DC12CD12C760120ED2E0F283020F11F
:1012C000D4FD09C02A3000F1D6FF05C02F7D8FEE76
:1012D000820F8630C0F0B801CF0115D2D1FFBBCF4D
:1012E000D7FF08C0F094E094D094C094C11CD11CE6
:1012F000E11CF11C2D2FB701A601C5013CDF81E0E7
:10130000ABCFD261D5CF27504D2FC701B60141DFFA
:101310006B017C01D260C15019F3C801D3DEFC011E
:1013200097FFCACFDBCFA0E2B0E0E8E9F9E00CC25A
:101330006C01962E7A01CE0101965C0180E2F501E6
:1013400011928A95E9F7F6018380890150E040E027
:10135000B0E020E0A0E061E070E0F80183FC95914E
:1013600083FE9191892F8F01911106C010E000E05A
:10137000C801A096ECE004C29E3519F44115510550
:1013800031F1A4171506ECF49D3549F19D32C9F4ED
:10139000222309F1E82FE695E695E695EA0DFB2D67
:1013A000F11D982F97709B0101C0220F9A95EAF7C3
:1013B0009081292B20838B1781F08B1730F48F5F5E
:1013C000E9CF2111E7CFB92FE5CF8150E3CFA1E0DD
:1013D0004F5F5F4FC2CF21E0FBCF20E0F9CF222348
:1013E00019F08E8180628E83AA2361F0F5019E013F
:1013F0002F5D3F4F8081DF01319680958C93E217FE
:10140000F307C1F788248394C6015CDE97FD15C0FD
:10141000E82FE695E695E695EA0DFB2DF11D208176
:1014200030E0AC014770552702C0359527954A95A5
:10143000E2F720FD05C0B60166D1882059F096CFAD
:10144000E114F10419F0F70181937F019A94812C42
:101450009110DACFE114F10409F48ACFF701108278
:1014600087CFA6E0B0E0E6E3FAE06CC15C016D83F3
:101470007E83742E652EDC0117961C921E921697A1
:10148000C12CD5011396FC90ED81FE81F3FC859172
:10149000F3FE8191182FFE83ED838823D9F090E02D
:1014A000EFD0892B19F0C501ACDEEBCF153251F42A
:1014B000ED81FE81F3FC1591F3FE1191FE83ED8326
:1014C000153259F4C501FEDD97FD9CC01817C9F20D
:1014D000B50119D18C2D90E099C000E01A3249F481
:1014E000ED81FE81F3FC1591F3FE1191FE83ED83F6
:1014F00001E0D12C20ED210F2A3050F101FF3FC037
:10150000DD2041F3183609F43DC01C3609F446C00D
:10151000112301F3612F70E084E790E0B9D0892BAB
:10152000C9F2F12CE12C00FD06C0E72DF62DE1906B
:10153000F1907E2E6F2E1E3609F03AC0D501169618
:101540004D915C9170E060E0202FC70114DE99CFCF
:1015500002608D2D90E0B0E0A0E089839A83AB8398
:10156000BC8340E2BC01CD0114DED62EED81FE81AC
:10157000F3FC1591F3FE1191FE83ED83BBCFDD24C7
:10158000DA94C0CFED81FE81F3FC1591F3FE119149
:10159000FE83ED83183609F0BBCF08600460ED814F
:1015A000FE81F3FC1591F3FE1191FE83ED83B0CF24
:1015B0001336A9F401FD02C0DD24D394C50182DDF8
:1015C00097FD20C0E114F10419F0F70181937F0128
:1015D000DA94D110F3CF00FD54CFC39452CF1B3512
:1015E000C1F42D813E81A7016D2DC5019CDE8D8347
:1015F0009E83ED81FE81EF2B71F7F501838180736E
:1016000009F468CF8FEF9FEFC11064CF2696EEE00C
:10161000B5C0C501F6DD97FDF5CF1F3679F130F481
:10162000143641F0193639F0006405C01337A1F0C3
:101630001537D1F70062202FA7016D2DC501F7DD09
:101640008111C9CFDACFE114F10419F0F7018192C9
:101650007F01DA94DD2059F0C50134DD4C0197FD9E
:1016600006C00ED0892B79F3B501C4014CD0E1142A
:10167000F10409F4B0CFD7011C92ADCF0061DBCFEC
:10168000911159C0803219F089508550D0F70895D2
:10169000FC010590061621F00020D9F7C00108953D
:1016A0003197CF0108950F931F93CF93DF93182F96
:1016B000092FEB018B8181FD09C01FEF0FEF812FF7
:1016C000902FDF91CF911F910F91089582FF14C049
:1016D0002E813F818C819D81281739073CF4E88158
:1016E000F981CF0101969983888310838E819F8130
:1016F00001969F838E83E3CFE885F985812F099535
:10170000892BA1F3DACFFB01238120FF11C026FD35
:101710000FC08F3F980771F082832F7D2064238351
:1017200026813781215031093783268399270895EF
:101730008FEF9FEF08959927882708952F923F9262
:101740004F925F926F927F928F929F92AF92BF92D1
:10175000CF92DF92EF92FF920F931F93CF93DF937D
:10176000CDB7DEB7CA1BDB0B0FB6F894DEBF0FBEDA
:10177000CDBF09942A88398848885F846E847D8427
:101780008C849B84AA84B984C884DF80EE80FD8029
:101790000C811B81AA81B981CE0FD11D0FB6F8949F
:0E17A000DEBF0FBECDBFED010895F894FFCF60
:1017AE0006257320257300427574746F6E004C58B5
:1017BE00004C590052580052590048415400420002
:1017CE0041005A4C005A520053454C454354005365
:1017DE0054415254004C434C49434B0052434C49E4
:1017EE00434B00484F4D4500434150545552450020
:1017FE0052454C45415345004D494E004D41580010
:10180E00544F5000544F505F524947485400424F76
:10181E0054544F4D5F524947485400424F54544F11
:10182E004D00424F54544F4D5F4C45465400544F5B
:0E183E00505F4C4546540043454E5445520001
:00000001FF
